{
  "contractName": "Sbam",
  "abi": [
    {
      "anonymous": false,
      "inputs": [
        {
          "indexed": false,
          "internalType": "string",
          "name": "message",
          "type": "string"
        }
      ],
      "name": "printToConsole",
      "type": "event"
    },
    {
      "inputs": [
        {
          "internalType": "string",
          "name": "userName",
          "type": "string"
        },
        {
          "internalType": "string",
          "name": "publicKey",
          "type": "string"
        },
        {
          "internalType": "string",
          "name": "socialMedia",
          "type": "string"
        }
      ],
      "name": "registerUser",
      "outputs": [
        {
          "internalType": "bool",
          "name": "",
          "type": "bool"
        }
      ],
      "stateMutability": "nonpayable",
      "type": "function"
    },
    {
      "inputs": [
        {
          "internalType": "string",
          "name": "userName",
          "type": "string"
        }
      ],
      "name": "getUser",
      "outputs": [
        {
          "components": [
            {
              "internalType": "string",
              "name": "userName",
              "type": "string"
            },
            {
              "internalType": "string",
              "name": "publicKey",
              "type": "string"
            },
            {
              "internalType": "string",
              "name": "socialMedia",
              "type": "string"
            }
          ],
          "internalType": "struct Sbam.User",
          "name": "",
          "type": "tuple"
        }
      ],
      "stateMutability": "view",
      "type": "function",
      "constant": true
    },
    {
      "inputs": [
        {
          "internalType": "string",
          "name": "pkgName",
          "type": "string"
        },
        {
          "internalType": "string",
          "name": "version",
          "type": "string"
        },
        {
          "internalType": "string",
          "name": "ownername",
          "type": "string"
        },
        {
          "internalType": "string",
          "name": "pubKey",
          "type": "string"
        },
        {
          "internalType": "string",
          "name": "sign",
          "type": "string"
        }
      ],
      "name": "addPkgWithVersion",
      "outputs": [
        {
          "internalType": "bool",
          "name": "",
          "type": "bool"
        }
      ],
      "stateMutability": "nonpayable",
      "type": "function"
    },
    {
      "inputs": [
        {
          "internalType": "string",
          "name": "pkgName",
          "type": "string"
        },
        {
          "internalType": "string",
          "name": "version",
          "type": "string"
        }
      ],
      "name": "getPkg",
      "outputs": [
        {
          "components": [
            {
              "internalType": "string",
              "name": "pkgName",
              "type": "string"
            },
            {
              "internalType": "string",
              "name": "version",
              "type": "string"
            },
            {
              "internalType": "string",
              "name": "colName",
              "type": "string"
            },
            {
              "internalType": "string",
              "name": "colPublicKey",
              "type": "string"
            },
            {
              "internalType": "string",
              "name": "signature",
              "type": "string"
            }
          ],
          "internalType": "struct Sbam.VersionPackage",
          "name": "",
          "type": "tuple"
        }
      ],
      "stateMutability": "view",
      "type": "function",
      "constant": true
    }
  ],
  "bytecode": "0x60806040526101236000806101000a81548173ffffffffffffffffffffffffffffffffffffffff021916908373ffffffffffffffffffffffffffffffffffffffff16021790555034801561005257600080fd5b506113a7806100626000396000f3fe608060405234801561001057600080fd5b506004361061004c5760003560e01c806331feb67114610051578063baa1ee0214610081578063bc6fbeee146100b1578063d637dcfa146100e1575b600080fd5b61006b60048036038101906100669190610ba1565b610111565b6040516100789190610cd0565b60405180910390f35b61009b60048036038101906100969190610cf2565b6102ff565b6040516100a89190610e14565b60405180910390f35b6100cb60048036038101906100c69190610e2f565b6104c4565b6040516100d89190610f39565b60405180910390f35b6100fb60048036038101906100f69190610f5b565b6107fe565b6040516101089190610e14565b60405180910390f35b610119610954565b600182604051610129919061103e565b908152602001604051809103902060405180606001604052908160008201805461015290611084565b80601f016020809104026020016040519081016040528092919081815260200182805461017e90611084565b80156101cb5780601f106101a0576101008083540402835291602001916101cb565b820191906000526020600020905b8154815290600101906020018083116101ae57829003601f168201915b505050505081526020016001820180546101e490611084565b80601f016020809104026020016040519081016040528092919081815260200182805461021090611084565b801561025d5780601f106102325761010080835404028352916020019161025d565b820191906000526020600020905b81548152906001019060200180831161024057829003601f168201915b5050505050815260200160028201805461027690611084565b80601f01602080910402602001604051908101604052809291908181526020018280546102a290611084565b80156102ef5780601f106102c4576101008083540402835291602001916102ef565b820191906000526020600020905b8154815290600101906020018083116102d257829003601f168201915b5050505050815250509050919050565b6000808686604051602001610315929190611101565b604051602081830303815290604052905060405160200161033590611156565b6040516020818303038152906040528051906020012060028260405161035b919061103e565b908152602001604051809103902060000160405160200161037c91906111ff565b60405160208183030381529060405280519060200120146103d6577fd121248d592d2a0411cf055a8ba051500bd1e0f21a01dd04b27f5295bf259b526040516103c4906112bf565b60405180910390a160009150506104bb565b60006040518060a0016040528089815260200188815260200187815260200186815260200185815250905080600283604051610412919061103e565b9081526020016040518091039020600082015181600001908051906020019061043c929190610975565b506020820151816001019080519060200190610459929190610975565b506040820151816002019080519060200190610476929190610975565b506060820151816003019080519060200190610493929190610975565b5060808201518160040190805190602001906104b0929190610975565b509050506001925050505b95945050505050565b6104cc6109fb565b600083836040516020016104e1929190611101565b6040516020818303038152906040529050600281604051610502919061103e565b90815260200160405180910390206040518060a001604052908160008201805461052b90611084565b80601f016020809104026020016040519081016040528092919081815260200182805461055790611084565b80156105a45780601f10610579576101008083540402835291602001916105a4565b820191906000526020600020905b81548152906001019060200180831161058757829003601f168201915b505050505081526020016001820180546105bd90611084565b80601f01602080910402602001604051908101604052809291908181526020018280546105e990611084565b80156106365780601f1061060b57610100808354040283529160200191610636565b820191906000526020600020905b81548152906001019060200180831161061957829003601f168201915b5050505050815260200160028201805461064f90611084565b80601f016020809104026020016040519081016040528092919081815260200182805461067b90611084565b80156106c85780601f1061069d576101008083540402835291602001916106c8565b820191906000526020600020905b8154815290600101906020018083116106ab57829003601f168201915b505050505081526020016003820180546106e190611084565b80601f016020809104026020016040519081016040528092919081815260200182805461070d90611084565b801561075a5780601f1061072f5761010080835404028352916020019161075a565b820191906000526020600020905b81548152906001019060200180831161073d57829003601f168201915b5050505050815260200160048201805461077390611084565b80601f016020809104026020016040519081016040528092919081815260200182805461079f90611084565b80156107ec5780601f106107c1576101008083540402835291602001916107ec565b820191906000526020600020905b8154815290600101906020018083116107cf57829003601f168201915b50505050508152505091505092915050565b600060405160200161080f90611156565b60405160208183030381529060405280519060200120600185604051610835919061103e565b908152602001604051809103902060000160405160200161085691906111ff565b60405160208183030381529060405280519060200120146108af577fd121248d592d2a0411cf055a8ba051500bd1e0f21a01dd04b27f5295bf259b5260405161089e90611351565b60405180910390a16000905061094d565b60006040518060600160405280868152602001858152602001848152509050806001866040516108df919061103e565b90815260200160405180910390206000820151816000019080519060200190610909929190610975565b506020820151816001019080519060200190610926929190610975565b506040820151816002019080519060200190610943929190610975565b5090505060019150505b9392505050565b60405180606001604052806060815260200160608152602001606081525090565b82805461098190611084565b90600052602060002090601f0160209004810192826109a357600085556109ea565b82601f106109bc57805160ff19168380011785556109ea565b828001600101855582156109ea579182015b828111156109e95782518255916020019190600101906109ce565b5b5090506109f79190610a2a565b5090565b6040518060a0016040528060608152602001606081526020016060815260200160608152602001606081525090565b5b80821115610a43576000816000905550600101610a2b565b5090565b6000604051905090565b600080fd5b600080fd5b600080fd5b600080fd5b6000601f19601f8301169050919050565b7f4e487b7100000000000000000000000000000000000000000000000000000000600052604160045260246000fd5b610aae82610a65565b810181811067ffffffffffffffff82111715610acd57610acc610a76565b5b80604052505050565b6000610ae0610a47565b9050610aec8282610aa5565b919050565b600067ffffffffffffffff821115610b0c57610b0b610a76565b5b610b1582610a65565b9050602081019050919050565b82818337600083830152505050565b6000610b44610b3f84610af1565b610ad6565b905082815260208101848484011115610b6057610b5f610a60565b5b610b6b848285610b22565b509392505050565b600082601f830112610b8857610b87610a5b565b5b8135610b98848260208601610b31565b91505092915050565b600060208284031215610bb757610bb6610a51565b5b600082013567ffffffffffffffff811115610bd557610bd4610a56565b5b610be184828501610b73565b91505092915050565b600081519050919050565b600082825260208201905092915050565b60005b83811015610c24578082015181840152602081019050610c09565b83811115610c33576000848401525b50505050565b6000610c4482610bea565b610c4e8185610bf5565b9350610c5e818560208601610c06565b610c6781610a65565b840191505092915050565b60006060830160008301518482036000860152610c8f8282610c39565b91505060208301518482036020860152610ca98282610c39565b91505060408301518482036040860152610cc38282610c39565b9150508091505092915050565b60006020820190508181036000830152610cea8184610c72565b905092915050565b600080600080600060a08688031215610d0e57610d0d610a51565b5b600086013567ffffffffffffffff811115610d2c57610d2b610a56565b5b610d3888828901610b73565b955050602086013567ffffffffffffffff811115610d5957610d58610a56565b5b610d6588828901610b73565b945050604086013567ffffffffffffffff811115610d8657610d85610a56565b5b610d9288828901610b73565b935050606086013567ffffffffffffffff811115610db357610db2610a56565b5b610dbf88828901610b73565b925050608086013567ffffffffffffffff811115610de057610ddf610a56565b5b610dec88828901610b73565b9150509295509295909350565b60008115159050919050565b610e0e81610df9565b82525050565b6000602082019050610e296000830184610e05565b92915050565b60008060408385031215610e4657610e45610a51565b5b600083013567ffffffffffffffff811115610e6457610e63610a56565b5b610e7085828601610b73565b925050602083013567ffffffffffffffff811115610e9157610e90610a56565b5b610e9d85828601610b73565b9150509250929050565b600060a0830160008301518482036000860152610ec48282610c39565b91505060208301518482036020860152610ede8282610c39565b91505060408301518482036040860152610ef88282610c39565b91505060608301518482036060860152610f128282610c39565b91505060808301518482036080860152610f2c8282610c39565b9150508091505092915050565b60006020820190508181036000830152610f538184610ea7565b905092915050565b600080600060608486031215610f7457610f73610a51565b5b600084013567ffffffffffffffff811115610f9257610f91610a56565b5b610f9e86828701610b73565b935050602084013567ffffffffffffffff811115610fbf57610fbe610a56565b5b610fcb86828701610b73565b925050604084013567ffffffffffffffff811115610fec57610feb610a56565b5b610ff886828701610b73565b9150509250925092565b600081905092915050565b600061101882610bea565b6110228185611002565b9350611032818560208601610c06565b80840191505092915050565b600061104a828461100d565b915081905092915050565b7f4e487b7100000000000000000000000000000000000000000000000000000000600052602260045260246000fd5b6000600282049050600182168061109c57607f821691505b6020821081036110af576110ae611055565b5b50919050565b7f5f00000000000000000000000000000000000000000000000000000000000000600082015250565b60006110eb600183611002565b91506110f6826110b5565b600182019050919050565b600061110d828561100d565b9150611118826110de565b9150611124828461100d565b91508190509392505050565b50565b6000611140600083611002565b915061114b82611130565b600082019050919050565b600061116182611133565b9150819050919050565b60008190508160005260206000209050919050565b6000815461118d81611084565b6111978186611002565b945060018216600081146111b257600181146111c3576111f6565b60ff198316865281860193506111f6565b6111cc8561116b565b60005b838110156111ee578154818901526001820191506020810190506111cf565b838801955050505b50505092915050565b600061120b8284611180565b915081905092915050565b600082825260208201905092915050565b7f54686973207061636b616765206e616d65206f722076657273696f6e2069732060008201527f6f636375706965642c20706c656173652074727920616e6f74686572206f6e6560208201527f2e00000000000000000000000000000000000000000000000000000000000000604082015250565b60006112a9604183611216565b91506112b482611227565b606082019050919050565b600060208201905081810360008301526112d88161129c565b9050919050565b7f546869732075736572206e616d65206973206f636375706965642c20706c656160008201527f73652074727920616e6f74686572206f6e652e00000000000000000000000000602082015250565b600061133b603383611216565b9150611346826112df565b604082019050919050565b6000602082019050818103600083015261136a8161132e565b905091905056fea26469706673582212201f904a5de2befe8a0efddad7866f2869ea9d79e5267473c1fb42144dc00e8aa064736f6c634300080d0033",
  "immutableReferences": {},
  "source": "pragma solidity >=0.4.25;\n\ncontract Sbam {\n    address authenticatedServerAddress = address(0x123);\n\n    struct User {\n    string userName;\n    string publicKey;\n    string socialMedia;\n    }\n\n    struct VersionPackage {\n        string pkgName;\n        string version;\n        string colName;\n        string colPublicKey;\n        string signature; // sign by uploader's pkg private key\n    }\n\n    mapping (string => User) userName2user;\n    mapping (string => VersionPackage) pkgName2pkg; // pkgName_version\n\n    event printToConsole(string message);\n\n    // after register to server, register to block chain\n    function registerUser(string memory userName, string memory publicKey, \n        string memory socialMedia) public returns(bool) {\n        // if (msg.sender != authenticatedServerAddress) {\n        //     emit printToConsole(\"Only authticated server address can write data to block chain!\");\n        //     return false;\n        // }\n        if (keccak256(abi.encodePacked(userName2user[userName].userName)) \n            != keccak256(abi.encodePacked(\"\"))) {\n            emit printToConsole(\"This user name is occupied, please try another one.\");\n            return false;\n        } else {\n            User memory user = User(userName, publicKey, socialMedia);\n            userName2user[userName] = user;\n            return true;\n        }\n    }\n\n    function getUser(string memory userName) public view returns(User memory) {\n        return userName2user[userName]; // if value is empty, the return object will have default value (\"\", 0, \"\", 0)\n    }\n\n    // pkg content sign by private key of pkg\n    function addPkgWithVersion(string memory pkgName, string memory version, string memory ownername, string memory pubKey, string memory sign) public returns(bool) {\n        // if (msg.sender != authenticatedServerAddress) {\n        //     emit printToConsole(\"Only authticated server address can write data to block chain!\");\n        //     return false;\n        // }\n        string memory key = string(abi.encodePacked(pkgName, \"_\", version));\n        if (keccak256(abi.encodePacked(pkgName2pkg[key].pkgName)) \n            != keccak256(abi.encodePacked(\"\"))) {\n            emit printToConsole(\"This package name or version is occupied, please try another one.\");\n            return false;\n        } else {\n            VersionPackage memory pkg = VersionPackage(pkgName, version, ownername, pubKey, sign);\n            pkgName2pkg[key] = pkg;\n            return true;\n        }\n    }\n\n    function getPkg(string memory pkgName, string memory version)  public view returns(VersionPackage memory) {\n        string memory key = string(abi.encodePacked(pkgName, \"_\", version));\n        return pkgName2pkg[key];\n    }\n}",
  "sourcePath": "/Users/sicongli/Desktop/227/CSE227_SBAM/proj/contracts/Sbam.sol",
  "compiler": {
    "name": "solc",
    "version": "0.8.13+commit.abaa5c0e.Emscripten.clang"
  },
  "schemaVersion": "3.4.6",
  "updatedAt": "2022-05-26T23:06:02.885Z",
  "networkType": "ethereum",
  "devdoc": {
    "kind": "dev",
    "methods": {},
    "version": 1
  },
  "userdoc": {
    "kind": "user",
    "methods": {},
    "version": 1
  }
}