{
  "contractName": "Sbam",
  "abi": [
    {
      "inputs": [],
      "stateMutability": "nonpayable",
      "type": "constructor"
    },
    {
      "anonymous": false,
      "inputs": [
        {
          "indexed": false,
          "internalType": "string",
          "name": "message",
          "type": "string"
        }
      ],
      "name": "printToConsole",
      "type": "event"
    },
    {
      "inputs": [
        {
          "internalType": "string",
          "name": "userName",
          "type": "string"
        }
      ],
      "name": "registerUser",
      "outputs": [
        {
          "internalType": "bool",
          "name": "",
          "type": "bool"
        }
      ],
      "stateMutability": "nonpayable",
      "type": "function"
    },
    {
      "inputs": [
        {
          "internalType": "string",
          "name": "userName",
          "type": "string"
        }
      ],
      "name": "getUserIdByName",
      "outputs": [
        {
          "internalType": "uint256",
          "name": "",
          "type": "uint256"
        }
      ],
      "stateMutability": "view",
      "type": "function",
      "constant": true
    }
  ],
  "bytecode": "0x608060405234801561001057600080fd5b506001600481905550610623806100286000396000f3fe608060405234801561001057600080fd5b50600436106100365760003560e01c8063704f1b941461003b5780638da754861461006b575b600080fd5b610055600480360381019061005091906102fd565b61009b565b6040516100629190610361565b60405180910390f35b610085600480360381019061008091906102fd565b61017c565b6040516100929190610395565b60405180910390f35b6000806000836040516100ae919061042a565b90815260200160405180910390205414610100577fd121248d592d2a0411cf055a8ba051500bd1e0f21a01dd04b27f5295bf259b526040516100ef906104c4565b60405180910390a160009050610177565b600454600083604051610113919061042a565b9081526020016040518091039020819055506004600081548092919061013890610513565b91905055507fd121248d592d2a0411cf055a8ba051500bd1e0f21a01dd04b27f5295bf259b5260405161016a906105cd565b60405180910390a1600190505b919050565b6000808260405161018d919061042a565b9081526020016040518091039020549050919050565b6000604051905090565b600080fd5b600080fd5b600080fd5b600080fd5b6000601f19601f8301169050919050565b7f4e487b7100000000000000000000000000000000000000000000000000000000600052604160045260246000fd5b61020a826101c1565b810181811067ffffffffffffffff82111715610229576102286101d2565b5b80604052505050565b600061023c6101a3565b90506102488282610201565b919050565b600067ffffffffffffffff821115610268576102676101d2565b5b610271826101c1565b9050602081019050919050565b82818337600083830152505050565b60006102a061029b8461024d565b610232565b9050828152602081018484840111156102bc576102bb6101bc565b5b6102c784828561027e565b509392505050565b600082601f8301126102e4576102e36101b7565b5b81356102f484826020860161028d565b91505092915050565b600060208284031215610313576103126101ad565b5b600082013567ffffffffffffffff811115610331576103306101b2565b5b61033d848285016102cf565b91505092915050565b60008115159050919050565b61035b81610346565b82525050565b60006020820190506103766000830184610352565b92915050565b6000819050919050565b61038f8161037c565b82525050565b60006020820190506103aa6000830184610386565b92915050565b600081519050919050565b600081905092915050565b60005b838110156103e45780820151818401526020810190506103c9565b838111156103f3576000848401525b50505050565b6000610404826103b0565b61040e81856103bb565b935061041e8185602086016103c6565b80840191505092915050565b600061043682846103f9565b915081905092915050565b600082825260208201905092915050565b7f546869732075736572206e616d65206973206f636375706965642c20706c656160008201527f73652074727920616e6f74686572206f6e652e00000000000000000000000000602082015250565b60006104ae603383610441565b91506104b982610452565b604082019050919050565b600060208201905081810360008301526104dd816104a1565b9050919050565b7f4e487b7100000000000000000000000000000000000000000000000000000000600052601160045260246000fd5b600061051e8261037c565b91507fffffffffffffffffffffffffffffffffffffffffffffffffffffffffffffffff82036105505761054f6104e4565b5b600182019050919050565b7f494d504f5254414e543a20796f75722070726976617465206b6579206973203160008201527f3131000000000000000000000000000000000000000000000000000000000000602082015250565b60006105b7602283610441565b91506105c28261055b565b604082019050919050565b600060208201905081810360008301526105e6816105aa565b905091905056fea264697066735822122093e20826f6338b3980a926eeceb75788fadf7a5636aecb63796e6a7512ccc8e264736f6c634300080d0033",
  "immutableReferences": {},
  "source": "pragma solidity >=0.4.25;\n\nstruct User {\n    uint userId;\n    string userName;\n    bytes[] publicKey;\n}\n\nstruct Package {\n\tuint packageId;\n\tstring packageName;\n\tbytes[][] publicKey; // may have different collaborators\n    uint version;\n\tbytes[][] content;\n}\n\ncontract Sbam {\n    mapping (string => uint) userName2userId;\n    mapping (uint => User) userId2user;\n\n    mapping(string => uint) pkgName2pkgId;\n\tmapping(uint => Package) pkgId2pkg;\n\n    uint nextUserId;\n\n    constructor() {\n        nextUserId = 1;\n    }\n\n    event printToConsole(string message);\n\n    function registerUser(string memory userName) public returns(bool) {\n        // already has user name\n        if (userName2userId[userName] != 0) {\n            emit printToConsole(\"This user name is occupied, please try another one.\");\n            return false;\n        } else {\n            userName2userId[userName] = nextUserId;\n            nextUserId++;\n            // TODO: generate key pair\n            emit printToConsole(\"IMPORTANT: your private key is 111\");\n            return true;\n        }\n    }\n\n    function getUserIdByName(string memory userName) public view returns(uint) {\n        return userName2userId[userName];\n    }\n}",
  "sourcePath": "/Users/sicongli/Desktop/227/CSE227_SBAM/proj/contracts/Sbam.sol",
  "compiler": {
    "name": "solc",
    "version": "0.8.13+commit.abaa5c0e.Emscripten.clang"
  },
  "schemaVersion": "3.4.6",
  "updatedAt": "2022-04-28T03:11:22.536Z",
  "networkType": "ethereum",
  "devdoc": {
    "kind": "dev",
    "methods": {},
    "version": 1
  },
  "userdoc": {
    "kind": "user",
    "methods": {},
    "version": 1
  }
}