{
  "contractName": "Sbam",
  "abi": [
    {
      "anonymous": false,
      "inputs": [
        {
          "indexed": false,
          "internalType": "string",
          "name": "message",
          "type": "string"
        }
      ],
      "name": "printToConsole",
      "type": "event"
    },
    {
      "inputs": [
        {
          "internalType": "uint256",
          "name": "id",
          "type": "uint256"
        },
        {
          "internalType": "string",
          "name": "userName",
          "type": "string"
        },
        {
          "internalType": "bytes[]",
          "name": "publicKey",
          "type": "bytes[]"
        },
        {
          "internalType": "string",
          "name": "socialMedia",
          "type": "string"
        }
      ],
      "name": "registerUser",
      "outputs": [
        {
          "internalType": "bool",
          "name": "",
          "type": "bool"
        }
      ],
      "stateMutability": "nonpayable",
      "type": "function"
    },
    {
      "inputs": [
        {
          "internalType": "string",
          "name": "userName",
          "type": "string"
        }
      ],
      "name": "getUser",
      "outputs": [
        {
          "components": [
            {
              "internalType": "uint256",
              "name": "userId",
              "type": "uint256"
            },
            {
              "internalType": "string",
              "name": "userName",
              "type": "string"
            },
            {
              "internalType": "bytes[]",
              "name": "publicKey",
              "type": "bytes[]"
            },
            {
              "internalType": "string",
              "name": "socialMedia",
              "type": "string"
            }
          ],
          "internalType": "struct Sbam.User",
          "name": "",
          "type": "tuple"
        }
      ],
      "stateMutability": "view",
      "type": "function",
      "constant": true
    },
    {
      "inputs": [
        {
          "internalType": "string",
          "name": "pkgName",
          "type": "string"
        },
        {
          "internalType": "string",
          "name": "version",
          "type": "string"
        },
        {
          "internalType": "string",
          "name": "ownername",
          "type": "string"
        },
        {
          "internalType": "bytes[]",
          "name": "pubKey",
          "type": "bytes[]"
        },
        {
          "internalType": "bytes[]",
          "name": "sign",
          "type": "bytes[]"
        }
      ],
      "name": "addPkgWithVersion",
      "outputs": [
        {
          "internalType": "bool",
          "name": "",
          "type": "bool"
        }
      ],
      "stateMutability": "nonpayable",
      "type": "function"
    },
    {
      "inputs": [
        {
          "internalType": "string",
          "name": "pkgName",
          "type": "string"
        },
        {
          "internalType": "string",
          "name": "version",
          "type": "string"
        }
      ],
      "name": "getPkg",
      "outputs": [
        {
          "components": [
            {
              "internalType": "string",
              "name": "pkgName",
              "type": "string"
            },
            {
              "internalType": "string",
              "name": "version",
              "type": "string"
            },
            {
              "internalType": "string",
              "name": "colName",
              "type": "string"
            },
            {
              "internalType": "bytes[]",
              "name": "colPublicKey",
              "type": "bytes[]"
            },
            {
              "internalType": "bytes[]",
              "name": "signature",
              "type": "bytes[]"
            }
          ],
          "internalType": "struct Sbam.VersionPackage",
          "name": "",
          "type": "tuple"
        }
      ],
      "stateMutability": "view",
      "type": "function",
      "constant": true
    }
  ],
  "bytecode": "0x608060405234801561001057600080fd5b506118f2806100206000396000f3fe608060405234801561001057600080fd5b506004361061004c5760003560e01c806331feb67114610051578063bc6fbeee14610081578063d2bea590146100b1578063e246b80b146100e1575b600080fd5b61006b60048036038101906100669190610de2565b610111565b6040516100789190611054565b60405180910390f35b61009b60048036038101906100969190611076565b610350565b6040516100a89190611180565b60405180910390f35b6100cb60048036038101906100c69190611329565b610718565b6040516100d8919061144b565b60405180910390f35b6100fb60048036038101906100f69190611492565b6108dd565b604051610108919061144b565b60405180910390f35b610119610a44565b6000826040516101299190611589565b90815260200160405180910390206040518060800160405290816000820154815260200160018201805461015c906115cf565b80601f0160208091040260200160405190810160405280929190818152602001828054610188906115cf565b80156101d55780601f106101aa576101008083540402835291602001916101d5565b820191906000526020600020905b8154815290600101906020018083116101b857829003601f168201915b5050505050815260200160028201805480602002602001604051908101604052809291908181526020016000905b828210156102af578382906000526020600020018054610222906115cf565b80601f016020809104026020016040519081016040528092919081815260200182805461024e906115cf565b801561029b5780601f106102705761010080835404028352916020019161029b565b820191906000526020600020905b81548152906001019060200180831161027e57829003601f168201915b505050505081526020019060010190610203565b5050505081526020016003820180546102c7906115cf565b80601f01602080910402602001604051908101604052809291908181526020018280546102f3906115cf565b80156103405780601f1061031557610100808354040283529160200191610340565b820191906000526020600020905b81548152906001019060200180831161032357829003601f168201915b5050505050815250509050919050565b610358610a6c565b6000838360405160200161036d92919061164c565b604051602081830303815290604052905060018160405161038e9190611589565b90815260200160405180910390206040518060a00160405290816000820180546103b7906115cf565b80601f01602080910402602001604051908101604052809291908181526020018280546103e3906115cf565b80156104305780601f1061040557610100808354040283529160200191610430565b820191906000526020600020905b81548152906001019060200180831161041357829003601f168201915b50505050508152602001600182018054610449906115cf565b80601f0160208091040260200160405190810160405280929190818152602001828054610475906115cf565b80156104c25780601f10610497576101008083540402835291602001916104c2565b820191906000526020600020905b8154815290600101906020018083116104a557829003601f168201915b505050505081526020016002820180546104db906115cf565b80601f0160208091040260200160405190810160405280929190818152602001828054610507906115cf565b80156105545780601f1061052957610100808354040283529160200191610554565b820191906000526020600020905b81548152906001019060200180831161053757829003601f168201915b5050505050815260200160038201805480602002602001604051908101604052809291908181526020016000905b8282101561062e5783829060005260206000200180546105a1906115cf565b80601f01602080910402602001604051908101604052809291908181526020018280546105cd906115cf565b801561061a5780601f106105ef5761010080835404028352916020019161061a565b820191906000526020600020905b8154815290600101906020018083116105fd57829003601f168201915b505050505081526020019060010190610582565b50505050815260200160048201805480602002602001604051908101604052809291908181526020016000905b8282101561070757838290600052602060002001805461067a906115cf565b80601f01602080910402602001604051908101604052809291908181526020018280546106a6906115cf565b80156106f35780601f106106c8576101008083540402835291602001916106f3565b820191906000526020600020905b8154815290600101906020018083116106d657829003601f168201915b50505050508152602001906001019061065b565b505050508152505091505092915050565b600080868660405160200161072e92919061164c565b604051602081830303815290604052905060405160200161074e906116a1565b604051602081830303815290604052805190602001206001826040516107749190611589565b9081526020016040518091039020600001604051602001610795919061174a565b60405160208183030381529060405280519060200120146107ef577fd121248d592d2a0411cf055a8ba051500bd1e0f21a01dd04b27f5295bf259b526040516107dd9061180a565b60405180910390a160009150506108d4565b60006040518060a001604052808981526020018881526020018781526020018681526020018581525090508060018360405161082b9190611589565b90815260200160405180910390206000820151816000019080519060200190610855929190610a9b565b506020820151816001019080519060200190610872929190610a9b565b50604082015181600201908051906020019061088f929190610a9b565b5060608201518160030190805190602001906108ac929190610b21565b5060808201518160040190805190602001906108c9929190610b21565b509050506001925050505b95945050505050565b60006040516020016108ee906116a1565b604051602081830303815290604052805190602001206000856040516109149190611589565b9081526020016040518091039020600101604051602001610935919061174a565b604051602081830303815290604052805190602001201461098e577fd121248d592d2a0411cf055a8ba051500bd1e0f21a01dd04b27f5295bf259b5260405161097d9061189c565b60405180910390a160009050610a3c565b60006040518060800160405280878152602001868152602001858152602001848152509050806000866040516109c49190611589565b90815260200160405180910390206000820151816000015560208201518160010190805190602001906109f8929190610a9b565b506040820151816002019080519060200190610a15929190610b21565b506060820151816003019080519060200190610a32929190610a9b565b5090505060019150505b949350505050565b6040518060800160405280600081526020016060815260200160608152602001606081525090565b6040518060a0016040528060608152602001606081526020016060815260200160608152602001606081525090565b828054610aa7906115cf565b90600052602060002090601f016020900481019282610ac95760008555610b10565b82601f10610ae257805160ff1916838001178555610b10565b82800160010185558215610b10579182015b82811115610b0f578251825591602001919060010190610af4565b5b509050610b1d9190610b81565b5090565b828054828255906000526020600020908101928215610b70579160200282015b82811115610b6f578251829080519060200190610b5f929190610b9e565b5091602001919060010190610b41565b5b509050610b7d9190610c24565b5090565b5b80821115610b9a576000816000905550600101610b82565b5090565b828054610baa906115cf565b90600052602060002090601f016020900481019282610bcc5760008555610c13565b82601f10610be557805160ff1916838001178555610c13565b82800160010185558215610c13579182015b82811115610c12578251825591602001919060010190610bf7565b5b509050610c209190610b81565b5090565b5b80821115610c445760008181610c3b9190610c48565b50600101610c25565b5090565b508054610c54906115cf565b6000825580601f10610c665750610c85565b601f016020900490600052602060002090810190610c849190610b81565b5b50565b6000604051905090565b600080fd5b600080fd5b600080fd5b600080fd5b6000601f19601f8301169050919050565b7f4e487b7100000000000000000000000000000000000000000000000000000000600052604160045260246000fd5b610cef82610ca6565b810181811067ffffffffffffffff82111715610d0e57610d0d610cb7565b5b80604052505050565b6000610d21610c88565b9050610d2d8282610ce6565b919050565b600067ffffffffffffffff821115610d4d57610d4c610cb7565b5b610d5682610ca6565b9050602081019050919050565b82818337600083830152505050565b6000610d85610d8084610d32565b610d17565b905082815260208101848484011115610da157610da0610ca1565b5b610dac848285610d63565b509392505050565b600082601f830112610dc957610dc8610c9c565b5b8135610dd9848260208601610d72565b91505092915050565b600060208284031215610df857610df7610c92565b5b600082013567ffffffffffffffff811115610e1657610e15610c97565b5b610e2284828501610db4565b91505092915050565b6000819050919050565b610e3e81610e2b565b82525050565b600081519050919050565b600082825260208201905092915050565b60005b83811015610e7e578082015181840152602081019050610e63565b83811115610e8d576000848401525b50505050565b6000610e9e82610e44565b610ea88185610e4f565b9350610eb8818560208601610e60565b610ec181610ca6565b840191505092915050565b600081519050919050565b600082825260208201905092915050565b6000819050602082019050919050565b600081519050919050565b600082825260208201905092915050565b6000610f1f82610ef8565b610f298185610f03565b9350610f39818560208601610e60565b610f4281610ca6565b840191505092915050565b6000610f598383610f14565b905092915050565b6000602082019050919050565b6000610f7982610ecc565b610f838185610ed7565b935083602082028501610f9585610ee8565b8060005b85811015610fd15784840389528151610fb28582610f4d565b9450610fbd83610f61565b925060208a01995050600181019050610f99565b50829750879550505050505092915050565b6000608083016000830151610ffb6000860182610e35565b50602083015184820360208601526110138282610e93565b9150506040830151848203604086015261102d8282610f6e565b915050606083015184820360608601526110478282610e93565b9150508091505092915050565b6000602082019050818103600083015261106e8184610fe3565b905092915050565b6000806040838503121561108d5761108c610c92565b5b600083013567ffffffffffffffff8111156110ab576110aa610c97565b5b6110b785828601610db4565b925050602083013567ffffffffffffffff8111156110d8576110d7610c97565b5b6110e485828601610db4565b9150509250929050565b600060a083016000830151848203600086015261110b8282610e93565b915050602083015184820360208601526111258282610e93565b9150506040830151848203604086015261113f8282610e93565b915050606083015184820360608601526111598282610f6e565b915050608083015184820360808601526111738282610f6e565b9150508091505092915050565b6000602082019050818103600083015261119a81846110ee565b905092915050565b600067ffffffffffffffff8211156111bd576111bc610cb7565b5b602082029050602081019050919050565b600080fd5b600067ffffffffffffffff8211156111ee576111ed610cb7565b5b6111f782610ca6565b9050602081019050919050565b6000611217611212846111d3565b610d17565b90508281526020810184848401111561123357611232610ca1565b5b61123e848285610d63565b509392505050565b600082601f83011261125b5761125a610c9c565b5b813561126b848260208601611204565b91505092915050565b6000611287611282846111a2565b610d17565b905080838252602082019050602084028301858111156112aa576112a96111ce565b5b835b818110156112f157803567ffffffffffffffff8111156112cf576112ce610c9c565b5b8086016112dc8982611246565b855260208501945050506020810190506112ac565b5050509392505050565b600082601f8301126113105761130f610c9c565b5b8135611320848260208601611274565b91505092915050565b600080600080600060a0868803121561134557611344610c92565b5b600086013567ffffffffffffffff81111561136357611362610c97565b5b61136f88828901610db4565b955050602086013567ffffffffffffffff8111156113905761138f610c97565b5b61139c88828901610db4565b945050604086013567ffffffffffffffff8111156113bd576113bc610c97565b5b6113c988828901610db4565b935050606086013567ffffffffffffffff8111156113ea576113e9610c97565b5b6113f6888289016112fb565b925050608086013567ffffffffffffffff81111561141757611416610c97565b5b611423888289016112fb565b9150509295509295909350565b60008115159050919050565b61144581611430565b82525050565b6000602082019050611460600083018461143c565b92915050565b61146f81610e2b565b811461147a57600080fd5b50565b60008135905061148c81611466565b92915050565b600080600080608085870312156114ac576114ab610c92565b5b60006114ba8782880161147d565b945050602085013567ffffffffffffffff8111156114db576114da610c97565b5b6114e787828801610db4565b935050604085013567ffffffffffffffff81111561150857611507610c97565b5b611514878288016112fb565b925050606085013567ffffffffffffffff81111561153557611534610c97565b5b61154187828801610db4565b91505092959194509250565b600081905092915050565b600061156382610e44565b61156d818561154d565b935061157d818560208601610e60565b80840191505092915050565b60006115958284611558565b915081905092915050565b7f4e487b7100000000000000000000000000000000000000000000000000000000600052602260045260246000fd5b600060028204905060018216806115e757607f821691505b6020821081036115fa576115f96115a0565b5b50919050565b7f5f00000000000000000000000000000000000000000000000000000000000000600082015250565b600061163660018361154d565b915061164182611600565b600182019050919050565b60006116588285611558565b915061166382611629565b915061166f8284611558565b91508190509392505050565b50565b600061168b60008361154d565b91506116968261167b565b600082019050919050565b60006116ac8261167e565b9150819050919050565b60008190508160005260206000209050919050565b600081546116d8816115cf565b6116e2818661154d565b945060018216600081146116fd576001811461170e57611741565b60ff19831686528186019350611741565b611717856116b6565b60005b838110156117395781548189015260018201915060208101905061171a565b838801955050505b50505092915050565b600061175682846116cb565b915081905092915050565b600082825260208201905092915050565b7f54686973207061636b616765206e616d65206f722076657273696f6e2069732060008201527f6f636375706965642c20706c656173652074727920616e6f74686572206f6e6560208201527f2e00000000000000000000000000000000000000000000000000000000000000604082015250565b60006117f4604183611761565b91506117ff82611772565b606082019050919050565b60006020820190508181036000830152611823816117e7565b9050919050565b7f546869732075736572206e616d65206973206f636375706965642c20706c656160008201527f73652074727920616e6f74686572206f6e652e00000000000000000000000000602082015250565b6000611886603383611761565b91506118918261182a565b604082019050919050565b600060208201905081810360008301526118b581611879565b905091905056fea264697066735822122061f1b8bd94df66c00b1125c8433fdbb52a9e2c7e99876ea51c7509ad8ae3af5864736f6c634300080d0033",
  "immutableReferences": {},
  "source": "pragma solidity >=0.4.25;\n\ncontract Sbam {\n\n    struct User {\n    uint userId;\n    string userName;\n    bytes[] publicKey;\n    string socialMedia;\n    }\n\n    struct VersionPackage {\n        string pkgName;\n        string version;\n        string colName;\n        bytes[] colPublicKey;\n        bytes[] signature; // sign by uploader's pkg private key\n    }\n\n    mapping (string => User) userName2user;\n    mapping (string => VersionPackage) pkgName2pkg; // pkgName_version\n\n    event printToConsole(string message);\n\n    // after register to server, register to block chain\n    function registerUser(uint id, string memory userName, bytes[] memory publicKey, \n        string memory socialMedia) public returns(bool) {\n        if (keccak256(abi.encodePacked(userName2user[userName].userName)) \n            != keccak256(abi.encodePacked(\"\"))) {\n            emit printToConsole(\"This user name is occupied, please try another one.\");\n            return false;\n        } else {\n            User memory user = User(id, userName, publicKey, socialMedia);\n            userName2user[userName] = user;\n            return true;\n        }\n    }\n\n    function getUser(string memory userName) public view returns(User memory) {\n        return userName2user[userName]; // if value is empty, the return object will have default value (\"\", 0, \"\", 0)\n    }\n\n    // pkg content sign by private key of pkg\n    function addPkgWithVersion(string memory pkgName, string memory version, string memory ownername, bytes[] memory pubKey, bytes[] memory sign) public returns(bool) {\n        string memory key = string(abi.encodePacked(pkgName, \"_\", version));\n        if (keccak256(abi.encodePacked(pkgName2pkg[key].pkgName)) \n            != keccak256(abi.encodePacked(\"\"))) {\n            emit printToConsole(\"This package name or version is occupied, please try another one.\");\n            return false;\n        } else {\n            VersionPackage memory pkg = VersionPackage(pkgName, version, ownername, pubKey, sign);\n            pkgName2pkg[key] = pkg;\n            return true;\n        }\n    }\n\n    function getPkg(string memory pkgName, string memory version)  public view returns(VersionPackage memory) {\n        string memory key = string(abi.encodePacked(pkgName, \"_\", version));\n        return pkgName2pkg[key];\n    }\n}",
  "sourcePath": "/Users/sicongli/Desktop/227/CSE227_SBAM/proj/contracts/Sbam.sol",
  "compiler": {
    "name": "solc",
    "version": "0.8.13+commit.abaa5c0e.Emscripten.clang"
  },
  "schemaVersion": "3.4.6",
  "updatedAt": "2022-05-24T01:43:08.449Z",
  "networkType": "ethereum",
  "devdoc": {
    "kind": "dev",
    "methods": {},
    "version": 1
  },
  "userdoc": {
    "kind": "user",
    "methods": {},
    "version": 1
  }
}