{
  "contractName": "Sbam",
  "abi": [
    {
      "anonymous": false,
      "inputs": [
        {
          "indexed": false,
          "internalType": "string",
          "name": "message",
          "type": "string"
        }
      ],
      "name": "printToConsole",
      "type": "event"
    },
    {
      "inputs": [
        {
          "internalType": "string",
          "name": "userName",
          "type": "string"
        },
        {
          "internalType": "string",
          "name": "publicKey",
          "type": "string"
        },
        {
          "internalType": "string",
          "name": "socialMedia",
          "type": "string"
        }
      ],
      "name": "registerUser",
      "outputs": [
        {
          "internalType": "bool",
          "name": "",
          "type": "bool"
        }
      ],
      "stateMutability": "nonpayable",
      "type": "function"
    },
    {
      "inputs": [
        {
          "internalType": "string",
          "name": "userName",
          "type": "string"
        }
      ],
      "name": "getUser",
      "outputs": [
        {
          "components": [
            {
              "internalType": "string",
              "name": "userName",
              "type": "string"
            },
            {
              "internalType": "string",
              "name": "publicKey",
              "type": "string"
            },
            {
              "internalType": "string",
              "name": "socialMedia",
              "type": "string"
            }
          ],
          "internalType": "struct Sbam.User",
          "name": "",
          "type": "tuple"
        }
      ],
      "stateMutability": "view",
      "type": "function",
      "constant": true
    },
    {
      "inputs": [
        {
          "internalType": "string",
          "name": "pkgName",
          "type": "string"
        },
        {
          "internalType": "string",
          "name": "version",
          "type": "string"
        },
        {
          "internalType": "string",
          "name": "ownername",
          "type": "string"
        },
        {
          "internalType": "string",
          "name": "pubKey",
          "type": "string"
        },
        {
          "internalType": "string",
          "name": "sign",
          "type": "string"
        }
      ],
      "name": "addPkgWithVersion",
      "outputs": [
        {
          "internalType": "bool",
          "name": "",
          "type": "bool"
        }
      ],
      "stateMutability": "nonpayable",
      "type": "function"
    },
    {
      "inputs": [
        {
          "internalType": "string",
          "name": "pkgName",
          "type": "string"
        },
        {
          "internalType": "string",
          "name": "version",
          "type": "string"
        }
      ],
      "name": "getPkg",
      "outputs": [
        {
          "components": [
            {
              "internalType": "string",
              "name": "pkgName",
              "type": "string"
            },
            {
              "internalType": "string",
              "name": "version",
              "type": "string"
            },
            {
              "internalType": "string",
              "name": "colName",
              "type": "string"
            },
            {
              "internalType": "string",
              "name": "colPublicKey",
              "type": "string"
            },
            {
              "internalType": "string",
              "name": "signature",
              "type": "string"
            }
          ],
          "internalType": "struct Sbam.VersionPackage",
          "name": "",
          "type": "tuple"
        }
      ],
      "stateMutability": "view",
      "type": "function",
      "constant": true
    },
    {
      "inputs": [
        {
          "internalType": "string",
          "name": "ownerName",
          "type": "string"
        },
        {
          "internalType": "string",
          "name": "pkgName",
          "type": "string"
        }
      ],
      "name": "addPkgOwner",
      "outputs": [
        {
          "internalType": "bool",
          "name": "",
          "type": "bool"
        }
      ],
      "stateMutability": "nonpayable",
      "type": "function"
    },
    {
      "inputs": [
        {
          "internalType": "string",
          "name": "colName",
          "type": "string"
        },
        {
          "internalType": "string",
          "name": "pkgName",
          "type": "string"
        }
      ],
      "name": "addPkgCollaborator",
      "outputs": [
        {
          "internalType": "bool",
          "name": "",
          "type": "bool"
        }
      ],
      "stateMutability": "nonpayable",
      "type": "function"
    },
    {
      "inputs": [
        {
          "internalType": "string",
          "name": "pkgName",
          "type": "string"
        }
      ],
      "name": "getPkgInfo",
      "outputs": [
        {
          "components": [
            {
              "internalType": "string",
              "name": "ownerName",
              "type": "string"
            },
            {
              "internalType": "string[10]",
              "name": "collaboratorName",
              "type": "string[10]"
            }
          ],
          "internalType": "struct Sbam.PkgCollaborator",
          "name": "",
          "type": "tuple"
        }
      ],
      "stateMutability": "view",
      "type": "function",
      "constant": true
    }
  ],
  "bytecode": "0x60806040526101236000806101000a81548173ffffffffffffffffffffffffffffffffffffffff021916908373ffffffffffffffffffffffffffffffffffffffff16021790555034801561005257600080fd5b50611e80806100626000396000f3fe608060405234801561001057600080fd5b506004361061007d5760003560e01c8063bc6fbeee1161005b578063bc6fbeee14610112578063d637dcfa14610142578063f0b50c2a14610172578063f743cbdf146101a25761007d565b80630b645f1b1461008257806331feb671146100b2578063baa1ee02146100e2575b600080fd5b61009c600480360381019061009791906112f8565b6101d2565b6040516100a991906114c3565b60405180910390f35b6100cc60048036038101906100c791906112f8565b610363565b6040516100d99190611543565b60405180910390f35b6100fc60048036038101906100f79190611565565b610551565b6040516101099190611687565b60405180910390f35b61012c600480360381019061012791906116a2565b610716565b60405161013991906117ac565b60405180910390f35b61015c600480360381019061015791906117ce565b610a50565b6040516101699190611687565b60405180910390f35b61018c600480360381019061018791906116a2565b610ba6565b6040516101999190611687565b60405180910390f35b6101bc60048036038101906101b791906116a2565b610d9e565b6040516101c99190611687565b60405180910390f35b6101da610fac565b6003826040516101ea91906118b1565b9081526020016040518091039020604051806040016040529081600082018054610213906118f7565b80601f016020809104026020016040519081016040528092919081815260200182805461023f906118f7565b801561028c5780601f106102615761010080835404028352916020019161028c565b820191906000526020600020905b81548152906001019060200180831161026f57829003601f168201915b5050505050815260200160018201600a80602002604051908101604052809291906000905b828210156103545783820180546102c7906118f7565b80601f01602080910402602001604051908101604052809291908181526020018280546102f3906118f7565b80156103405780601f1061031557610100808354040283529160200191610340565b820191906000526020600020905b81548152906001019060200180831161032357829003601f168201915b5050505050815260200190600101906102b1565b50505050815250509050919050565b61036b610fcc565b60018260405161037b91906118b1565b90815260200160405180910390206040518060600160405290816000820180546103a4906118f7565b80601f01602080910402602001604051908101604052809291908181526020018280546103d0906118f7565b801561041d5780601f106103f25761010080835404028352916020019161041d565b820191906000526020600020905b81548152906001019060200180831161040057829003601f168201915b50505050508152602001600182018054610436906118f7565b80601f0160208091040260200160405190810160405280929190818152602001828054610462906118f7565b80156104af5780601f10610484576101008083540402835291602001916104af565b820191906000526020600020905b81548152906001019060200180831161049257829003601f168201915b505050505081526020016002820180546104c8906118f7565b80601f01602080910402602001604051908101604052809291908181526020018280546104f4906118f7565b80156105415780601f1061051657610100808354040283529160200191610541565b820191906000526020600020905b81548152906001019060200180831161052457829003601f168201915b5050505050815250509050919050565b6000808686604051602001610567929190611974565b6040516020818303038152906040529050604051602001610587906119c9565b604051602081830303815290604052805190602001206002826040516105ad91906118b1565b90815260200160405180910390206000016040516020016105ce9190611a72565b6040516020818303038152906040528051906020012014610628577fd121248d592d2a0411cf055a8ba051500bd1e0f21a01dd04b27f5295bf259b5260405161061690611b32565b60405180910390a1600091505061070d565b60006040518060a001604052808981526020018881526020018781526020018681526020018581525090508060028360405161066491906118b1565b9081526020016040518091039020600082015181600001908051906020019061068e929190610fed565b5060208201518160010190805190602001906106ab929190610fed565b5060408201518160020190805190602001906106c8929190610fed565b5060608201518160030190805190602001906106e5929190610fed565b506080820151816004019080519060200190610702929190610fed565b509050506001925050505b95945050505050565b61071e611073565b60008383604051602001610733929190611974565b604051602081830303815290604052905060028160405161075491906118b1565b90815260200160405180910390206040518060a001604052908160008201805461077d906118f7565b80601f01602080910402602001604051908101604052809291908181526020018280546107a9906118f7565b80156107f65780601f106107cb576101008083540402835291602001916107f6565b820191906000526020600020905b8154815290600101906020018083116107d957829003601f168201915b5050505050815260200160018201805461080f906118f7565b80601f016020809104026020016040519081016040528092919081815260200182805461083b906118f7565b80156108885780601f1061085d57610100808354040283529160200191610888565b820191906000526020600020905b81548152906001019060200180831161086b57829003601f168201915b505050505081526020016002820180546108a1906118f7565b80601f01602080910402602001604051908101604052809291908181526020018280546108cd906118f7565b801561091a5780601f106108ef5761010080835404028352916020019161091a565b820191906000526020600020905b8154815290600101906020018083116108fd57829003601f168201915b50505050508152602001600382018054610933906118f7565b80601f016020809104026020016040519081016040528092919081815260200182805461095f906118f7565b80156109ac5780601f10610981576101008083540402835291602001916109ac565b820191906000526020600020905b81548152906001019060200180831161098f57829003601f168201915b505050505081526020016004820180546109c5906118f7565b80601f01602080910402602001604051908101604052809291908181526020018280546109f1906118f7565b8015610a3e5780601f10610a1357610100808354040283529160200191610a3e565b820191906000526020600020905b815481529060010190602001808311610a2157829003601f168201915b50505050508152505091505092915050565b6000604051602001610a61906119c9565b60405160208183030381529060405280519060200120600185604051610a8791906118b1565b9081526020016040518091039020600001604051602001610aa89190611a72565b6040516020818303038152906040528051906020012014610b01577fd121248d592d2a0411cf055a8ba051500bd1e0f21a01dd04b27f5295bf259b52604051610af090611bc4565b60405180910390a160009050610b9f565b6000604051806060016040528086815260200185815260200184815250905080600186604051610b3191906118b1565b90815260200160405180910390206000820151816000019080519060200190610b5b929190610fed565b506020820151816001019080519060200190610b78929190610fed565b506040820151816002019080519060200190610b95929190610fed565b5090505060019150505b9392505050565b6000604051602001610bb7906119c9565b60405160208183030381529060405280519060200120600383604051610bdd91906118b1565b9081526020016040518091039020600001604051602001610bfe9190611a72565b6040516020818303038152906040528051906020012003610c57577fd121248d592d2a0411cf055a8ba051500bd1e0f21a01dd04b27f5295bf259b52604051610c4690611c56565b60405180910390a160009050610d98565b6000805b600a811015610d4d57604051602001610c73906119c9565b60405160208183030381529060405280519060200120600385604051610c9991906118b1565b908152602001604051809103902060010182600a8110610cbc57610cbb611c76565b5b01604051602001610ccd9190611a72565b6040516020818303038152906040528051906020012003610d3a5784600385604051610cf991906118b1565b908152602001604051809103902060010182600a8110610d1c57610d1b611c76565b5b019080519060200190610d30929190610fed565b5060019150610d4d565b8080610d4590611cde565b915050610c5b565b5080610d92577fd121248d592d2a0411cf055a8ba051500bd1e0f21a01dd04b27f5295bf259b52604051610d8090611d98565b60405180910390a16000915050610d98565b60019150505b92915050565b6000604051602001610daf906119c9565b60405160208183030381529060405280519060200120600383604051610dd591906118b1565b9081526020016040518091039020600001604051602001610df69190611a72565b6040516020818303038152906040528051906020012014610e4f577fd121248d592d2a0411cf055a8ba051500bd1e0f21a01dd04b27f5295bf259b52604051610e3e90611e2a565b60405180910390a160009050610fa6565b60006040518061014001604052806040518060200160405280600081525081526020016040518060200160405280600081525081526020016040518060200160405280600081525081526020016040518060200160405280600081525081526020016040518060200160405280600081525081526020016040518060200160405280600081525081526020016040518060200160405280600081525081526020016040518060200160405280600081525081526020016040518060200160405280600081525081526020016040518060200160405280600081525081525090506000604051806040016040528086815260200183815250905080600385604051610f5991906118b1565b90815260200160405180910390206000820151816000019080519060200190610f83929190610fed565b5060208201518160010190600a610f9b9291906110a2565b509050506001925050505b92915050565b604051806040016040528060608152602001610fc66110f5565b81525090565b60405180606001604052806060815260200160608152602001606081525090565b828054610ff9906118f7565b90600052602060002090601f01602090048101928261101b5760008555611062565b82601f1061103457805160ff1916838001178555611062565b82800160010185558215611062579182015b82811115611061578251825591602001919060010190611046565b5b50905061106f919061111d565b5090565b6040518060a0016040528060608152602001606081526020016060815260200160608152602001606081525090565b82600a81019282156110e4579160200282015b828111156110e35782518290805190602001906110d3929190610fed565b50916020019190600101906110b5565b5b5090506110f1919061113a565b5090565b604051806101400160405280600a905b60608152602001906001900390816111055790505090565b5b8082111561113657600081600090555060010161111e565b5090565b5b8082111561115a5760008181611151919061115e565b5060010161113b565b5090565b50805461116a906118f7565b6000825580601f1061117c575061119b565b601f01602090049060005260206000209081019061119a919061111d565b5b50565b6000604051905090565b600080fd5b600080fd5b600080fd5b600080fd5b6000601f19601f8301169050919050565b7f4e487b7100000000000000000000000000000000000000000000000000000000600052604160045260246000fd5b611205826111bc565b810181811067ffffffffffffffff82111715611224576112236111cd565b5b80604052505050565b600061123761119e565b905061124382826111fc565b919050565b600067ffffffffffffffff821115611263576112626111cd565b5b61126c826111bc565b9050602081019050919050565b82818337600083830152505050565b600061129b61129684611248565b61122d565b9050828152602081018484840111156112b7576112b66111b7565b5b6112c2848285611279565b509392505050565b600082601f8301126112df576112de6111b2565b5b81356112ef848260208601611288565b91505092915050565b60006020828403121561130e5761130d6111a8565b5b600082013567ffffffffffffffff81111561132c5761132b6111ad565b5b611338848285016112ca565b91505092915050565b600081519050919050565b600082825260208201905092915050565b60005b8381101561137b578082015181840152602081019050611360565b8381111561138a576000848401525b50505050565b600061139b82611341565b6113a5818561134c565b93506113b581856020860161135d565b6113be816111bc565b840191505092915050565b6000600a9050919050565b600081905092915050565b6000819050919050565b60006113f58383611390565b905092915050565b6000602082019050919050565b6000611415826113c9565b61141f81856113d4565b935083602082028501611431856113df565b8060005b8581101561146d578484038952815161144e85826113e9565b9450611459836113fd565b925060208a01995050600181019050611435565b50829750879550505050505092915050565b6000604083016000830151848203600086015261149c8282611390565b915050602083015184820360208601526114b6828261140a565b9150508091505092915050565b600060208201905081810360008301526114dd818461147f565b905092915050565b600060608301600083015184820360008601526115028282611390565b9150506020830151848203602086015261151c8282611390565b915050604083015184820360408601526115368282611390565b9150508091505092915050565b6000602082019050818103600083015261155d81846114e5565b905092915050565b600080600080600060a08688031215611581576115806111a8565b5b600086013567ffffffffffffffff81111561159f5761159e6111ad565b5b6115ab888289016112ca565b955050602086013567ffffffffffffffff8111156115cc576115cb6111ad565b5b6115d8888289016112ca565b945050604086013567ffffffffffffffff8111156115f9576115f86111ad565b5b611605888289016112ca565b935050606086013567ffffffffffffffff811115611626576116256111ad565b5b611632888289016112ca565b925050608086013567ffffffffffffffff811115611653576116526111ad565b5b61165f888289016112ca565b9150509295509295909350565b60008115159050919050565b6116818161166c565b82525050565b600060208201905061169c6000830184611678565b92915050565b600080604083850312156116b9576116b86111a8565b5b600083013567ffffffffffffffff8111156116d7576116d66111ad565b5b6116e3858286016112ca565b925050602083013567ffffffffffffffff811115611704576117036111ad565b5b611710858286016112ca565b9150509250929050565b600060a08301600083015184820360008601526117378282611390565b915050602083015184820360208601526117518282611390565b9150506040830151848203604086015261176b8282611390565b915050606083015184820360608601526117858282611390565b9150506080830151848203608086015261179f8282611390565b9150508091505092915050565b600060208201905081810360008301526117c6818461171a565b905092915050565b6000806000606084860312156117e7576117e66111a8565b5b600084013567ffffffffffffffff811115611805576118046111ad565b5b611811868287016112ca565b935050602084013567ffffffffffffffff811115611832576118316111ad565b5b61183e868287016112ca565b925050604084013567ffffffffffffffff81111561185f5761185e6111ad565b5b61186b868287016112ca565b9150509250925092565b600081905092915050565b600061188b82611341565b6118958185611875565b93506118a581856020860161135d565b80840191505092915050565b60006118bd8284611880565b915081905092915050565b7f4e487b7100000000000000000000000000000000000000000000000000000000600052602260045260246000fd5b6000600282049050600182168061190f57607f821691505b602082108103611922576119216118c8565b5b50919050565b7f5f00000000000000000000000000000000000000000000000000000000000000600082015250565b600061195e600183611875565b915061196982611928565b600182019050919050565b60006119808285611880565b915061198b82611951565b91506119978284611880565b91508190509392505050565b50565b60006119b3600083611875565b91506119be826119a3565b600082019050919050565b60006119d4826119a6565b9150819050919050565b60008190508160005260206000209050919050565b60008154611a00816118f7565b611a0a8186611875565b94506001821660008114611a255760018114611a3657611a69565b60ff19831686528186019350611a69565b611a3f856119de565b60005b83811015611a6157815481890152600182019150602081019050611a42565b838801955050505b50505092915050565b6000611a7e82846119f3565b915081905092915050565b600082825260208201905092915050565b7f54686973207061636b616765206e616d65206f722076657273696f6e2069732060008201527f6f636375706965642c20706c656173652074727920616e6f74686572206f6e6560208201527f2e00000000000000000000000000000000000000000000000000000000000000604082015250565b6000611b1c604183611a89565b9150611b2782611a9a565b606082019050919050565b60006020820190508181036000830152611b4b81611b0f565b9050919050565b7f546869732075736572206e616d65206973206f636375706965642c20706c656160008201527f73652074727920616e6f74686572206f6e652e00000000000000000000000000602082015250565b6000611bae603383611a89565b9150611bb982611b52565b604082019050919050565b60006020820190508181036000830152611bdd81611ba1565b9050919050565b7f54686973207061636b61676520646f65736e27742065786973742c206368656360008201527f6b20746865207061636b616765206e616d652100000000000000000000000000602082015250565b6000611c40603383611a89565b9150611c4b82611be4565b604082019050919050565b60006020820190508181036000830152611c6f81611c33565b9050919050565b7f4e487b7100000000000000000000000000000000000000000000000000000000600052603260045260246000fd5b7f4e487b7100000000000000000000000000000000000000000000000000000000600052601160045260246000fd5b6000819050919050565b6000611ce982611cd4565b91507fffffffffffffffffffffffffffffffffffffffffffffffffffffffffffffffff8203611d1b57611d1a611ca5565b5b600182019050919050565b7f54686973206361706163697479206f6620636f6c6c61626f7261746f7273206960008201527f7320726561636820746865206c696d69746174696f6e21000000000000000000602082015250565b6000611d82603783611a89565b9150611d8d82611d26565b604082019050919050565b60006020820190508181036000830152611db181611d75565b9050919050565b7f54686973207061636b61676520616c7265616479206578697374732c2063616e60008201527f27742072656e65772069742e0000000000000000000000000000000000000000602082015250565b6000611e14602c83611a89565b9150611e1f82611db8565b604082019050919050565b60006020820190508181036000830152611e4381611e07565b905091905056fea26469706673582212202d5626b07f67853ed9ae9e2a8fabf2114a1c4c6da3bcf7b2140b2b4d08e33e7064736f6c634300080d0033",
  "immutableReferences": {},
  "source": "pragma solidity >=0.4.25;\n\ncontract Sbam {\n    address authenticatedServerAddress = address(0x123);\n\n    struct User {\n    string userName;\n    string publicKey;\n    string socialMedia;\n    }\n\n    struct VersionPackage {\n        string pkgName;\n        string version;\n        string colName;\n        string colPublicKey;\n        string signature; // sign by uploader's pkg private key\n    }\n\n    struct PkgCollaborator {\n        string ownerName;\n        string[10] collaboratorName;\n    }\n\n    mapping (string => User) userName2user;\n    mapping (string => VersionPackage) pkgName2pkg; // key is pkgName_version\n    mapping (string => PkgCollaborator) pkgName2Collaborators;\n\n    event printToConsole(string message);\n\n    // after register to server, register to block chain\n    function registerUser(string memory userName, string memory publicKey, \n        string memory socialMedia) public returns(bool) {\n        // if (msg.sender != authenticatedServerAddress) {\n        //     emit printToConsole(\"Only authticated server address can write data to block chain!\");\n        //     return false;\n        // }\n        if (keccak256(abi.encodePacked(userName2user[userName].userName)) \n            != keccak256(abi.encodePacked(\"\"))) {\n            emit printToConsole(\"This user name is occupied, please try another one.\");\n            return false;\n        } else {\n            User memory user = User(userName, publicKey, socialMedia);\n            userName2user[userName] = user;\n            return true;\n        }\n    }\n\n    function getUser(string memory userName) public view returns(User memory) {\n        return userName2user[userName]; // if value is empty, the return object will have default value (\"\", 0, \"\", 0)\n    }\n\n    // pkg content sign by private key of pkg\n    function addPkgWithVersion(string memory pkgName, string memory version, string memory ownername, string memory pubKey, string memory sign) public returns(bool) {\n        // if (msg.sender != authenticatedServerAddress) {\n        //     emit printToConsole(\"Only authticated server address can write data to block chain!\");\n        //     return false;\n        // }\n        string memory key = string(abi.encodePacked(pkgName, \"_\", version));\n        if (keccak256(abi.encodePacked(pkgName2pkg[key].pkgName)) \n            != keccak256(abi.encodePacked(\"\"))) {\n            emit printToConsole(\"This package name or version is occupied, please try another one.\");\n            return false;\n        } else {\n            VersionPackage memory pkg = VersionPackage(pkgName, version, ownername, pubKey, sign);\n            pkgName2pkg[key] = pkg;\n            return true;\n        }\n    }\n\n    function getPkg(string memory pkgName, string memory version)  public view returns(VersionPackage memory) {\n        string memory key = string(abi.encodePacked(pkgName, \"_\", version));\n        return pkgName2pkg[key];\n    }\n\n    function addPkgOwner(string memory ownerName, string memory pkgName) public returns(bool) {\n        if (keccak256(abi.encodePacked(pkgName2Collaborators[pkgName].ownerName)) \n            != keccak256(abi.encodePacked(\"\"))) {\n            emit printToConsole(\"This package already exists, can't renew it.\");\n            return false;\n        } else {\n            string[10] memory col = [\"\", \"\", \"\", \"\", \"\", \"\", \"\", \"\", \"\", \"\"];\n            PkgCollaborator memory pkgCol = PkgCollaborator(ownerName, col);\n            pkgName2Collaborators[pkgName] = pkgCol;\n            return true;\n        }\n    }\n\n    function addPkgCollaborator(string memory colName, string memory pkgName) public returns(bool) {\n        if (keccak256(abi.encodePacked(pkgName2Collaborators[pkgName].ownerName)) \n            == keccak256(abi.encodePacked(\"\"))) {\n            emit printToConsole(\"This package doesn't exist, check the package name!\");\n            return false;\n        } else {\n            bool find = false;\n            for (uint i = 0; i < 10; i++) {\n                if (keccak256(abi.encodePacked(pkgName2Collaborators[pkgName].collaboratorName[i])) == keccak256(abi.encodePacked(\"\"))) {\n                    pkgName2Collaborators[pkgName].collaboratorName[i] = colName;\n                    find = true;\n                    break;\n                }\n            }\n            if (!find) {\n                emit printToConsole(\"This capacity of collaborators is reach the limitation!\");\n                return false;\n            }\n            return true;\n        }\n    }\n\n    function getPkgInfo(string memory pkgName)  public view returns(PkgCollaborator memory) {\n        return pkgName2Collaborators[pkgName];\n    }\n}",
  "sourcePath": "/Users/sicongli/Desktop/227/CSE227_SBAM/proj/contracts/Sbam.sol",
  "compiler": {
    "name": "solc",
    "version": "0.8.13+commit.abaa5c0e.Emscripten.clang"
  },
  "schemaVersion": "3.4.6",
  "updatedAt": "2022-05-27T20:44:32.820Z",
  "networkType": "ethereum",
  "devdoc": {
    "kind": "dev",
    "methods": {},
    "version": 1
  },
  "userdoc": {
    "kind": "user",
    "methods": {},
    "version": 1
  }
}